:020000040000fa
:10000000f0ff0320291a0a0087420a0027470a0046
:10001000d77a0a009fc00a0087d10a0000000000ba
:1000200000000000000000000000000053340a003f
:100030009f5c0a000000000053340a0053340a0099
:1000400053340a0053340a0053340a0053340a006c
:1000500053340a0053340a0053340a0053340a005c
:1000600053340a0053340a0053340a0045c50a00c9
:1000700053340a0053340a0053340a0053340a003c
:1000800053340a0053340a0053340a0053340a002c
:1000900053340a0053340a0053340a0053340a001c
:1000a00053340a0053340a0053340a0053340a000c
:1000b00053340a0053340a0053340a0053340a00fc
:1000c00053340a0053340a0053340a0053340a00ec
:1000d00053340a0053340a0053340a0053340a00dc
:1000e00053340a0053340a000000000000000000ee
:1000f0000000000053340a0053340a0053340a004d
:1001000053340a0053340a0005650a0005650a00e5
:1001100005650a0005650a0053340a0053340a00d5
:1001200053340a0053340a0053340a0053340a008b
:1001300053340a0053340a00753009007530090041
:10014000753009007530090053340a0053340a0031
:1001500053340a0053340a0053340a0053340a005b
:1001600053340a0053340a0053340a0053340a004b
:1001700053340a0053340a0053340a0053340a003b
:1001800053340a0053340a0053340a0053340a002b
:100190002dc20a0053340a0053340a0053340a00b3
:1001a00053340a0053340a0053340a0053340a000b
:1001b00053340a0053340a0053340a0053340a00fb
:1001c00053340a0053340a0053340a0053340a00eb
:1001d00053340a0053340a0053340a0053340a00db
:1001e00053340a0053340a0053340a0071c50a001c
:1001f00053340a0053340a0053340a0053340a00bb
:1002000053340a0053340a0053340a0053340a00aa
:1002100053340a0053340a0053340a0053340a009a
:1002200053340a0053340a0053340a0053340a008a
:1002300053340a0053340a0053340a0053340a007a
:1002400053340a0053340a0053340a0053340a006a
:1002500053340a0053340a0053340a0053340a005a
:0402600053340a0009
:020000040000fa
:10026400f8b500bff8bc08bc9e46704791940a00dc
:10027400f8b500bff8bc08bc9e4670476d940a00f0
:020000040000fa
:0802840020eb0800010000005e
:020000040000fa
:10028c00bef7bef7bef7bef7bef7bef7bef7bef7ba
:10029c00bef7bef7bef7bef7bef7bef7bef7bef7aa
:1002ac00bef7bef7bef7bef7bef7bef7bef7bef79a
:1002bc00bef7bef7bef7bef7bef7bef7bef7bef78a
:10122c00bef7bef7bef79ef79ef7bef7bef7bef74a
:10123c00bef79ef79ef79ef79ef79ef79ef79ef7da
:10124c00bef79ef79ef7bef7bef7bef7bef7bef72a
:10125c00bef7bef7bef7bef7bef7bef79ef79ef71a
:10126c009ef79ef79ef79ef7bef7bef7bef7bef74a
:10127c00bef7bef7bef7bef7bef7bef7bef7bef7ba
:10128c00bef7bef7bef7bef7bef7bef7bef7bef7aa
:10129c00bef7bef7bef7bef7bef7bef7bef7bef79a
:1012ac00bef7bef7bef7bef7bef7bef7bef7bef78a
:1015dc009ef79ef7bef79ef79ef79ef79ef79ef737
:1015ec009ef79ef79ef79ef79ef79ef79def9def59
:1015fc009def9def9def9def9def9def9def9def7f
:10160c009ef79ef79ef79ef79ef79ef79ef79ef726
:10161c009ef79ef79ef79ef79ef79ef79ef79ef716
:10162c009ef79ef79ef79ef79ef79ef79ef79ef706
:10163c009ef79ef79ef79ef79ef79ef79ef79ef7f6
:10164c009ef79ef7bef7bef7bef7bef7bef7bef726
:10165c00bef79ef7bef79ef79ef79ef79ef7bef776
:10166c00bef7bef7bef7bef7bef7bef7bef7bef7c6
:10167c00bef7bef7bef7bef7bef7bef7bef7bef7b6
:10168c00bef7bef7bef7bef7bef7bef7bef7bef7a6
:10169c00bef7bef7bef7bef7bef7bef7bef7bef796
:10198c00bef7bef7bef7bef79ef79ef79ef79ef723
:10199c009ef79ef79ef79def9def9def9def9defc0
:1019ac009def9ef79ef79ef79ef79def9def9defa7
:1019bc009def7def7def9def9def9def9def9deffb
:1019cc009def9def9def9def9def9def9def9defab
:1019dc009def9def9def9ef79ef79ef79ef79ef76e
:1019ec009ef79ef79ef79ef79def9def9def9def67
:1019fc009def9def9def9def9def9def9def9def7b
:101a0c009def9def9def9def9def9def9def9ef761
:101a1c009ef79ef79ef79ef79ef79ef79ef79ef712
:101a2c009ef79ef79ef7bef7bef7bef79ef79ef7a2
:101a3c009ef79ef79ef79ef7bef7bef7bef7bef772
:101a4c00bef7bef7bef7bef7bef7bef7bef7bef7e2
:101a5c00bef7bef7bef7bef7bef7bef7bef7bef7d2
:101a6c00bef7bef7bef7bef7bef7bef7bef7bef7c2
:101a7c00bef7bef7bef7bef7bef7bef7bef7bef7b2
:101d4c009ef79def9def9def9def9def9def9ef715
:101d5c009ef79ef79ef77def7def7def7def9def7c
:101d6c009def7def7def7def7def7def7def7defe7
:101d7c007def7def7def7def7def7def7def7deff7
:101d8c007def7def7def7def7def7def7def7defe7
:101d9c007def7def7def7def7def7def7def7defd7
:101dac007def7def9def7def9def9def9def9def27
:101dbc009def9def7def7def7def7def7def9def57
:101dcc009def9def9def9def9def9def9def9defa7
:101ddc009def9def9def9def9def9def9def9def97
:101dec009def9def9ef79ef79ef79ef79ef79ef751
:101dfc009ef79ef79ef79ef79ef79ef79ef79ef72f
:101e0c009ef7bef7bef79ef79ef79ef7bef7bef79e
:101e1c00bef7bef7bef7bef7bef7bef7bef7bef70e
:101e2c00bef7bef7bef7bef7bef7bef7bef7bef7fe
:101e3c00bef7bef7bef7bef7bef7bef7bef7bef7ee
:101e4c00bef7bef7bef7bef7bef7bef7bef7bef7de
:1020ec00bef7bef7bef7bef7bef7bef7bef79ef75c
:1020fc009ef79def9def9ef79ef79ef79ef79ef73e
:10210c009def9def9def9def9def9def7def7defa3
:10211c007def7def7def7def7def7def7def7def53
:10212c007def7def5def5def5def5def7def5defe3
:10213c005def5def5def5def5def5def5def5def33
:10214c005def5def5def7def7def7def7def5defa3
:10215c005def5def5def5def5def5def5def5def13
:10216c005def5def5def7def7def7def7def7def63
:10217c007def7def5def5def7def7def7def7def33
:10218c007def7def7def7def7def7def7def7defe3
:10219c007def7def7def7def7def9def9def9def73
:1021ac009def9def9def9def9def9def9def9defc3
:1021bc009def9def9def9def9def9def9ef79ef7a1
:1021cc009ef79ef79ef79ef79ef79ef79ef79ef75b
:1021dc009ef79ef7bef7bef7bef7bef7bef7bef78b
:1021ec00bef7bef79ef7bef7bef7bef7bef7bef75b
:1021fc00bef7bef7bef7bef7bef7bef7bef7bef72b
:10220c00bef7bef7bef7bef7bef7bef7bef7bef71a
:10221c00bef7bef7bef7bef7bef7bef7bef7bef70a
:10222c00bef7bef7bef7bef7bef7bef7bef7bef7fa
:1024ac00bef7bef79ef7bef79ef79ef79def9def2a
:1024bc009def7def7def7def7def7def7def7def90
:1024cc007def7def7def7def7def7def7def7defa0
:1024dc007def7def5def5def5def5def7def7def10
:1024ec007def5def5def5def5def7def5def5def40
:1024fc005def5def5def7def5def5def5def5ce759
:10250c005ce75ce75ce75ce75ce75def5def5def8c
:10251c005def5def5def5def5def5def5def5def4f
:10252c005def5def5def5def5def5def5def5def3f
:10253c005def5def5def5def5def5def5def5def2f
:10254c005def7def7def7def7def5def5def5def9f
:10255c005def5def5def7def7def7def7def7def6f
:10256c007def7def7def7def7def7def7def7defff
:10257c007def9def9def9def9def9def9def9def0f
:10258c009def9def9def9def9def9def9def9defdf
:10259c009def9def9def9ef79ef79def9def9defbd
:1025ac009ef79ef79ef79ef79ef79ef79ef79ef777
:1025bc00bef7bef7bef7bef7bef7bef7bef79ef787
:1025cc009ef79ef79ef79ef79ef79ef79ef79ef757
:1025dc009ef79ef79ef79ef7bef7bef7bef7bef7c7
:1025ec00bef7bef7bef7bef7bef7bef7bef7bef737
:1025fc00bef7bef7bef7bef7bef7bef7bef7bef727
:10260c00bef7bef7bef7bef7bef7bef7bef7bef716
:10261c00bef7bef7bef7bef7bef7bef7bef7bef706
:10285c00bef7bef7bef7bef7bef7bef79ef79ef704
:10286c009ef79def9def7def7def7def7def7def93
:10287c007def7def5def5def5ce75ce75ce75ce7d0
:10288c005ce73ce73ce73ce73ce73ce73ce73ce704
:10289c003ce73ce73ce73ce73ce73ce75ce75ce7d4
:1028ac003ce73ce73ce73ce73ce73ce75def7def92
:1028bc009ef7bef7bef7bef7def7dfffdfffdef7f2
:1028cc00bef7bef7bef79ef79def5def5ce75ce7ea
:1028dc003ce73ce73ce73ce75ce75ce75ce75def4b
:1028ec005def5def5def5ce75ce75def5def5def8e
:1028fc005def5def5def5def5def5def5def5def6c
:10290c005def5def5def5def5def5def5def5def5b
:10291c005def5def5def5def5def5def5def5def4b
:10292c005def5def5def5def5def5def7def7deffb
:10293c007def7def7def7def7def7def7def7def2b
:10294c007def7def7def7def7def7def7def7def1b
:10295c007def7def7def7def7def7def7def7def0b
:10296c007def7def7def7def7def7def9def9defbb
:10297c009def9def9def9ef79ef79ef79ef79ef7be
:10298c009ef79ef79ef79ef79ef79ef79ef79ef793
:10299c009ef79ef79ef79ef79ef79ef79ef79ef783
:1029ac009ef79ef79ef79ef79ef79ef7bef7bef733
:1029bc00bef7bef7bef7bef7bef7bef7bef7bef763
:1029cc00bef7bef7bef7bef7bef7bef7bef7bef753
:1029dc00bef7bef7bef7bef7bef7bef7bef7bef743
:1029ec00bef7bef7bef7bef7bef7bef7bef7bef733
:102c1c00bef7bef7bef79ef79ef79def9def7defdb
:102c2c007def7def5def5def5def5def5ce73ce72a
:102c3c003ce73ce73ce71ce73ce71ce71bdf1bdf02
:102c4c001bdffbdefbdefbdefbdefbdedbdedad6d8
:102c5c00dad6dad6bad6bad6bad69ad69ad69ad608
:102c6c0079ce38c659ce38c617bef7bdf7bdb6b546
:102c7c0075ad75ad55ad139d14a555ad75ad96b52a
:102c8c00f7bd59ce79cedad63ce79defdef7def70d
:102c9c00bef7bef7bef77def5ce75ce73ce73ce7d1
:102cac003ce75ce73ce73ce73ce73ce73ce73ce7e0
:102cbc005ce75ce75ce75ce75ce75ce75ce75ce7f0
:102ccc005ce73ce75ce75ce75ce75ce75ce75deff7
:102cdc005def5def5def5def5def5def5def5def88
:102cec005def5def5def5def5def5def5def5def78
:102cfc005def5def5def5def5def5def5def5def68
:102d0c005def5def5def7def7def7def7def5defd7
:102d1c005def7def7def7def7def7def7def7def67
:102d2c007def7def7def7def7def7def7def7def37
:102d3c007def7def7def7def7def7def7def7def27
:102d4c007def7def7def9def9def9def9def9def77
:102d5c009def9ef79ef79ef79ef79ef79ef79ef7c8
:102d6c009ef79ef79ef79ef79ef79ef79ef79ef7af
:102d7c009ef79ef79ef79ef79ef79ef79ef79ef79f
:102d8c009ef79ef79ef79ef7bef7bef7bef7bef70f
:102d9c00bef7bef7bef7bef7bef7bef7bef7bef77f
:102dac00bef7bef7bef7bef7bef7bef7bef7bef76f
:102dbc00bef7bef7bef7bef7bef7bef7bef7bef75f
:102dcc00bef7bef7bef7bef7bef7bef7bef7bef74f
:102fdc009ef79def9def7def7def7def7def5def3c
:102fec005ce75ce73ce73ce73ce73ce71ce7fbdee7
:102ffc00fbdefbdedbdefbdedbdedbdedad6bad6cf
:10300c00bad6bad69ad699ce99ce79ce79ce79ce81
:10301c0059ce38c618c618c6f7bdd7bdd7bdb6b57c
:10302c0075ad34a534a5f39c718cae73cb5ae841c5
:10303c0045290421e318a318a318c318c318e318cf
:10304c000421242145296529e739ab5a6d6bef7ba7
:10305c00b29454a5b6b579cefbde1ce73ce71ce771
:10306c001ce73ce73ce73ce73ce71ce73ce73ce77c
:10307c001ce71ce71ce73ce73ce73ce73ce73ce78c
:10308c003ce73ce73ce73ce73ce73ce73ce73ce71c
:10309c003ce73ce73ce73ce73ce73ce73ce73ce70c
:1030ac003ce73ce73ce73ce73ce75ce75ce75ce79c
:1030bc005ce75def5def5def5def5def5def5defad
:1030cc005def5def5def5def5def5def5def5def94
:1030dc005def5def5def5def5def5def5def5def84
:1030ec005def5def7def7def7def7def7def7defb4
:1030fc007def7def7def7def7def7def7def7def64
:10310c007def7def7def7def7def7def7def7def53
:10311c007def7def7def7def7def9def9def9defe3
:10312c009def9def9def9def9def9ef79ef79ef718
:10313c009ef79ef79ef79ef79ef79ef79ef79ef7db
:10314c009ef79ef79ef79ef79ef79ef79ef79ef7cb
:10315c009ef79ef79ef79ef79ef79ef79ef79ef7bb
:10316c009ef79ef79ef79ef79ef79ef7bef7bef76b
:10317c00bef7bef7bef7bef7bef7bef7bef7bef79b
:10318c00bef7bef7bef7bef7bef7bef7bef7bef78b
:10319c00bef7bef7bef7bef7bef7bef7bef7bef77b
:1031ac00bef7bef7bef7bef7bef7bef7bef7bef76b
:10338c00bef7bef79ef79ef79ef79ef79def9def5b
:10339c007def7def5def5ce73ce73ce73ce73ce72e
:1033ac001ce7fbdefbdefbdefbdedbdedbdedbde7f
:1033bc00bad6bad69ad69ad679ce79ce79ce59ce05
:1033cc0059ce59ce58c638c618c617bef7bdf7bd6c
:1033dc00d7bdb6b596b575ad55ad14a5f39cf39c9c
:1033ec00d39c518ccf7bcb5aa631a318410800003b
:1033fc0000000000000000000000000000000000c1
:10340c00000000000000000000000000210841083e
:10341c008210c318e420c739aa528e73718c14a57c
:10342c0096b5f7bd59cebad6dad6dad6dbdefbdee8
:10343c00fbdefbdefbdefbdefbdefbde1bdf1ce76d
:10344c001ce71ce71ce73ce73ce73ce71ce73ce7d8
:10345c003ce73ce73ce73ce73ce73ce73ce73ce748
:10346c003ce73ce73ce73ce73ce73ce73ce73ce738
:10347c003ce73ce73ce73ce73ce73ce73ce73ce728
:10348c005ce75ce75ce75ce75ce75ce75def5def06
:10349c005def5def5def5def5def5def5def5defc0
:1034ac005def5def5def5def5def5def5def5defb0
:1034bc005def5def5def5def5def5def5def5defa0
:1034cc007def7def7def7def7def7def7def7def90
:1034dc007def7def7def7def7def7def7def7def80
:1034ec007def7def7def7def7def7def7def7def70
:1034fc007def7def7def9def9def9def9def9defc0
:10350c009ef79ef79ef79ef79ef79ef79ef79ef707
:10351c009ef79ef79ef79ef79ef79ef79ef79ef7f7
:10352c009ef79ef79ef79ef79ef79ef79ef79ef7e7
:10353c009ef79ef79ef79ef79ef79ef79ef79ef7d7
:10374c00bef79ef79ef79ef79ef79def7def7def00
:10375c005def5ce73ce73ce73ce71ce71bdffbde8f
:10376c00dbdedbdebad6bad6bad69ad69ad679ce04
:10377c0079ce79ce58c638c638c618c618c6f7bd25
:10378c00f7bdf7bdd7bdd7bdb6b5b6b575ad55ada3
:10379c0055ad34a514a5f39cb294b294b294308474
:1037ac000c638631a21041080000000000002000cc
:1037bc0020002108200021084108210821082108a7
:1037cc002108210821082108200000000000000029
:1037dc000000000000000000200041080421084205
:1037ec000c638e73ef7b929414a555ad75adb6b585
:1037fc0017be38c679ce79ce9ad6bad6bad6dbde13
:10380c00fbdefbdefbde1bdffbde1bdf1bdf1bdf60
:10381c001ce71ce71ce71ce71bdf1bdf1bdf1bdfa8
:10382c001ce71ce71ce71ce71ce71ce71ce73ce754
:10383c003ce73ce73ce73ce73ce73ce73ce73ce764
:10384c003ce73ce73ce73ce73ce73ce73ce73ce754
:10385c003ce73ce73ce73ce73ce75ce75ce75ce7e4
:10386c005ce75ce75def5def5def5def5def5deffe
:10387c005def5def5def5def5def5def5def5defdc
:10388c005def5def5def5def5def5def5def5defcc
:10389c005def5def5def5def7def7def7def7def3c
:1038ac007def7def7def7def7def7def7def7defac
:1038bc007def7def7def7def7def7def7def7def9c
:1038cc007def7def7def7def7def7def9def9def4c
:1038dc009def9def9def9def9def9ef79ef79ef761
:1038ec009ef79ef79ef79ef79ef79ef79ef79ef724
:1038fc009ef79ef79ef79ef79ef79ef79ef79ef714
:10390c009ef79ef79ef7bef7bef7bef7bef7bef763
:10391c00bef7bef7bef7bef7bef7bef7bef7bef7f3
:10392c00bef7bef7bef7bef7bef7bef7bef7bef7e3
:10393c00bef7bef7bef7bef7bef7bef7bef7bef7d3
:10394c00bef7bef7bef7bef7bef7bef7bef7bef7c3
:10395c00bef7bef7bef7bef7bef7bef7bef7bef7b3
:10396c00bef7bef7bef7bef7bef7bef7bef7bef7a3
:10397c00bef7bef7bef7bef7bef7bef7bef7bef793
:10398c00bef7bef7bef7bef7bef7bef7bef7bef783
:10399c00bef7bef7bef7bef7bef7bef7bef7bef773
:1039ac00bef7bef7bef7bef7bef7bef7bef7bef763
:1039bc00bef7bef7bef7bef7bef7bef7bef7bef753
:1039cc00bef7bef7bef7bef7bef7bef7bef7bef743
:1039dc00bef7bef7bef7bef7bef7bef7bef7bef733
:1039ec00bef7bef7bef7bef7bef7bef7bef7bef723
:1039fc00bef7bef7bef7bef7bef7bef7bef7bef713
:103a0c00bef7bef7bef7bef7bef7bef7bef7bef702
:103a1c00bef7bef7bef7bef7bef7bef7bef7bef7f2
:103a2c00bef7bef7bef7bef7bef7bef7bef7bef7e2
:103a3c00bef7bef7bef7bef7bef7bef7bef7bef7d2
:103a4c00bef7bef7bef7bef7bef7bef7bef7bef7c2
:103a5c00bef7bef7bef7bef7bef7bef7bef7bef7b2
:103a6c00bef7bef7bef7bef7bef7bef7bef7bef7a2
:103a7c00bef7bef7bef7bef7bef7bef7bef7bef792
:103a8c00bef7bef7bef7bef7bef7bef7bef7bef782
:103a9c00bef7bef7bef7bef7bef7bef7bef7bef772
:103aac00bef7bef7bef7bef7bef7bef7bef7bef762
:103abc00bef7bef7bef7bef7bef7bef7bef7bef752
:103acc00bef7bef7bef7bef7bef7bef7bef7bef742
:103adc00bef7bef7bef7bef7bef7bef7bef7bef732
:103aec00bef7bef7bef7bef7bef7bef7bef7bef722
:103afc00bef7bef7bef7bef7bef7bef7bef7bef712
:103b0c00bef79ef79ef79ef77def7def5def5defc5
:103b1c005ce73ce73ce71ce71bdffbdefbdedbdea8
:103b2c00dbdebad69ad699ce79ce79ce59ce38c6b6
:103b3c0038c618c6f7bdf7bdf7bdd6b5b6b596b540
:103b4c0096b575ad55ad55ad55ad34a514a5f39cd5
:103b5c00d39cd294929492949294ef7b494a0421f0
:103b6c0041080000200021082108210841084108d3
:103b7c004108410841086108610861086108610851
:103b8c006108610861086210610861084108410818
:103b9c004108210821082000000000000000210835
:103bac00c318c739aa520c636d6bcf7b1084718c10
:103bbc00b29414a555ad75ad96b5d7bdf7bd18c665
:103bcc0038c659ce59ce79ce9ad6bad6bad6dad616
:103bdc00dbdedbdedbdedbdefbdefbdefbdefbde91
:103bec00fbdefbde1bdf1bdf1bdf1bdf1bdf1bdf3b
:103bfc001bdf1bdf1bdf1bdf1bdf1ce71ce71ce7ce
:103c0c001ce71ce71ce73ce73ce73ce73ce73ce7f0
:103c1c003ce73ce73ce73ce73ce73ce73ce73ce780
:103c2c003ce73ce73ce73ce73ce73ce73ce73ce770
:103c3c003ce75ce75ce75ce75ce75ce75ce75def77
:103c4c005def5def5def5def5def5def5def5def08
:103c5c005def5def5def5def5def5def5def5deff8
:103c6c005def5def5def5def5def5def5def5defe8
:103c7c005def5def7def7def7def7def7def7def18
:103c8c007def7def7def7def7def7def7def7defc8
:103c9c007def7def7def7def7def7def7def7defb8
:103cac007def7def9def9def9def9def9def9defe8
:103cbc009ef79ef79ef79ef79ef79ef79ef79ef750
:103ccc009ef79ef79ef79ef79ef79ef79ef79ef740
:103cdc009ef79ef7bef7bef7bef79ef7bef7bef790
:103cec00bef7bef7bef7bef7bef7bef7bef7bef720
:103cfc00bef7bef7bef7bef7bef7bef7bef7bef710
:103d0c00bef7bef7bef7bef7bef7bef7bef7bef7ff
:103d1c00bef7bef7bef7bef7bef7bef7bef7bef7ef
:103d2c00bef7bef7bef7bef7bef7bef7bef7bef7df
:103d3c00bef7bef7bef7bef7bef7bef7bef7bef7cf
:103d4c00bef7bef7bef7bef7bef7bef7bef7bef7bf
:103d5c00bef7bef7bef7bef7bef7bef7bef7bef7af
:103d6c00bef7bef7bef7bef7bef7bef7bef7bef79f
:103d7c00bef7bef7bef7bef7bef7bef7bef7bef78f
:103d8c00bef7bef7bef7bef7bef7bef7bef7bef77f
:103d9c00bef7bef7bef7bef7bef7bef7bef7bef76f
:103dac00bef7bef7bef7bef7bef7bef7bef7bef75f
:103dbc00bef7bef7bef7bef7bef7bef7bef7bef74f
:103dcc00bef7bef7bef7bef7bef7bef7bef7bef73f
:103ddc00bef7bef7bef7bef7bef7bef7bef7bef72f
:103dec00bef7bef7bef7bef7bef7bef7bef7bef71f
:103dfc00bef7bef7bef7bef7bef7bef7bef7bef70f
:103e0c00bef7bef7bef7bef7bef7bef7bef7bef7fe
:103e1c00bef7bef7bef7bef7bef7bef7bef7bef7ee
:103e2c00bef7bef7bef7bef7bef7bef7bef7bef7de
:103e3c00bef7bef7bef7bef7bef7bef7bef7bef7ce
:103e4c00bef7bef7bef7bef7bef7bef7bef7bef7be
:103e5c00bef7bef7bef7bef7bef7bef7bef7bef7ae
:103e6c00bef7bef7bef7bef7bef7bef7bef7bef79e
:103e7c00bef7bef7bef7bef7bef7bef7bef7bef78e
:103e8c00bef7bef7bef7bef7bef7bef7bef7bef77e
:103e9c00bef7bef7bef7bef7bef7bef7bef7bef76e
:103eac00bef7bef7bef7bef7bef7bef7bef7bef75e
:103ebc00bef7bef7bef7bef7bef7bef7bef79ef76e
:103ecc009ef79ef77def7def5def5ce75def5ce7c6
:103edc003ce73ce71bdffbdedbdedbdedbdebad602
:103eec009ad699ce79ce59ce38c638c638c6f7bdd3
:103efc00d7bdd7bdd7bdb6b596b596b575ad55add5
:103f0c0055ad55ad34a514a5f39cd39cb294b29485
:103f1c009294718c718cef7b494ac318200000007d
:103f2c0020002108410841086108621062108210cb
:103f3c0082108210821082108210821082108210e5
:103f4c0082108210821082108210821062108210f5
:103f5c0062106108610841084108410821082000ed
:103f6c0000002000a210a739aa520c630c636d6be1
:103f7c00ae73ef7b3084718c9294f39c34a555ad69
:103f8c0075ad96b5b6b5d6b5f7bd18c618c638c654
:103f9c0038c659ce59ce79ce79ce9ad69ad69ad6eb
:103fac00bad6dad6dbdedbdedbdedbdefbdefbde2f
:103fbc00fbde1bdf1bdf1bdffbdefbdefbdefbdeca
:103fcc00fbde1bdf1bdf1bdf1bdf1bdf1bdf1bdf36
:103fdc001ce71bdf1ce71ce71ce71ce71ce71ce7c6
:103fec003ce73ce73ce73ce73ce73ce71ce71ce7ed
:103ffc001ce73ce73ce73ce73ce73ce73ce73ce7bd
:10400c003ce73ce73ce73ce73ce75ce75ce75ce72c
:10401c005ce75ce75def5def5def5def5def5def46
:10402c005def5def5def5def5def5def5def5def24
:10403c005def5def5def5def5def5def5def5def14
:10404c005def5def5def5def5def7def7def7defa4
:10405c007def7def7def7def7def7def7def7deff4
:10406c007def7def7def7def7def7def7def7defe4
:10407c007def7def7def7def7def7def7def7defd4
:10408c009def9def9def9def9def9def9ef79ef7b2
:10409c009ef79ef79ef79ef79ef79ef79ef79ef76c
:1040ac009ef79ef79ef79ef79ef79ef79ef79ef75c
:1040bc00bef7bef7bef7bef7bef7bef7bef7bef74c
:1040cc00bef7bef7bef7bef7bef7bef7bef7bef73c
:1040dc00bef7bef7bef7bef7bef7bef7bef7bef72c
:1040ec00bef7bef7bef7bef7bef7bef7bef7bef71c
:1040fc00bef7bef7bef7bef7bef7bef7bef7bef70c
:10410c00bef7bef7bef7bef7bef7bef7bef7bef7fb
:10411c00bef7bef7bef7bef7bef7bef7bef7bef7eb
:10412c00bef7bef7bef7bef7bef7bef7bef7bef7db
:10413c00bef7bef7bef7bef7bef7bef7bef7bef7cb
:10414c00bef7bef7bef7bef7bef7bef7bef7bef7bb
:10415c00bef7bef7bef7bef7bef7bef7bef7bef7ab
:10416c00bef7bef7bef7bef7bef7bef7bef7bef79b
:10417c00bef7bef7bef7bef7bef7bef7bef7bef78b
:10418c00bef7bef7bef7bef7bef7bef7bef7bef77b
:10419c00bef7bef7bef7bef7bef7bef7bef7bef76b
:1041ac00bef7bef7bef7bef7bef7bef7bef7bef75b
:1041bc00bef7bef7bef7bef7bef7bef7bef7bef74b
:1041cc00bef7bef7bef7bef7bef7bef7bef7bef73b
:1041dc00bef7bef7bef7bef7bef7bef7bef7bef72b
:1041ec00bef7bef7bef7bef7bef7bef7bef7bef71b
:1041fc00bef7bef7bef7bef7bef7bef7bef7bef70b
:10420c00bef7bef7bef7bef7bef7bef7bef7bef7fa
:10421c00bef7bef7bef7bef7bef7bef7bef7bef7ea
:10422c00bef7bef7bef7bef7bef7bef7bef7bef7da
:10423c00bef7bef7bef7bef7bef7bef7bef7bef7ca
:10424c00bef7bef7bef7bef7bef7bef7bef7bef7ba
:10425c00bef7bef7bef7bef7bef7bef7bef7bef7aa
:10426c00bef7bef7bef7bef7bef7bef7bef7bef79a
:10427c00bef7bef7bef7bef7bef7bef7bef79ef7aa
:10428c009def9def9def7def5def5ce75ce73ce71d
:10429c001ce7fbdefbdedbdedbdebad69ad679cea4
:1042ac0079ce59ce58c638c618c6f7bdf7bdd7bd9e
:1042bc00b6b596b596b575ad55ad54a534a514a542
:1042cc0014a5f39cd294b294d294b294718c718c48
:1042dc00718c1084694aa3182000210841084108f8
:1042ec006108610861086210821082108210a210ad
:1042fc00a210a210a210a210a318a318a318a318fe
:10430c00a318a318a318a2108210a2108210821056
:10431c0082108210821082106210610861084108bc
:10432c004108210800002000c318e739cb5a0c6360
:10433c000c632c636d6b8e73cf7b1084518c9294b9
:10434c00b294d294f39c34a555ad55ad55ad75ad25
:10435c0096b5b6b5d7bdf7bdf7bd18c638c638c6c5
:10436c0038c659ce79ce79ce79ce9ad69ad69ad6f7
:10437c00bad6bad6bad6bad6dad6dad6dbdedbde1f
:10438c00dbdedbdefbdefbdefbdefbdefbdefbde99
:10439c00fbdefbdefbdefbdefbdefbdefbdefbde49
:1043ac001bdf1bdf1bdf1bdf1bdf1bdf1bdf1bdf31
:1043bc001ce71bdf1ce71ce71ce71ce73ce73ce7a2
:1043cc003ce73ce73ce71ce73ce73ce71ce73ce709
:1043dc003ce73ce73ce73ce73ce73ce73ce73ce7b9
:1043ec003ce73ce73ce75ce75ce75ce75ce75ce709
:1043fc005def5ce75def5def5def5def5def5ce763
:10440c005def5def5def5def5ce75def5def5def49
:10441c005def5def5def5def5def5def5def5def30
:10442c005def5def7def7def7def7def7def7def60
:10443c007def7def7def7def7def7def7def7def10
:10444c007def7def7def7def7def7def7def7def00
:10445c007def7def7def7def7def7def9def9defb0
:10446c009def9def9ef79ef79ef79ef79ef79ef7aa
:10447c009ef79ef79ef79ef79ef79ef79ef79ef788
:10448c009ef79ef79ef79ef7bef7bef7bef7bef7f8
:10449c00bef7bef7bef7bef7bef7bef7bef7bef768
:1044ac00bef7bef7bef7bef7bef7bef7bef7bef758
:1044bc00bef7bef7bef7bef7bef7bef7bef7bef748
:1044cc00bef7bef7bef7bef7bef7bef7bef7bef738
:1044dc00bef7bef7bef7bef7bef7bef7bef7bef728
:1044ec00bef7bef7bef7bef7bef7bef7bef7bef718
:1044fc00bef7bef7bef7bef7bef7bef7bef7bef708
:10450c00bef7bef7bef7bef7bef7bef7bef7bef7f7
:10451c00bef7bef7bef7bef7bef7bef7bef7bef7e7
:10452c00bef7bef7bef7bef7bef7bef7bef7bef7d7
:10453c00bef7bef7bef7bef7bef7bef7bef7bef7c7
:10454c00bef7bef7bef7bef7bef7bef7bef7bef7b7
:10455c00bef7bef7bef7bef7bef7bef7bef7bef7a7
:10456c00bef7bef7bef7bef7bef7bef7bef7bef797
:10457c00bef7bef7bef7bef7bef7bef7bef7bef787
:10458c00bef7bef7bef7bef7bef7bef7bef7bef777
:10459c00bef7bef7bef7bef7bef7bef7bef7bef767
:1045ac00bef7bef7bef7bef7bef7bef7bef7bef757
:1045bc00bef7bef7bef7bef7bef7bef7bef7bef747
:1045cc00bef7bef7bef7bef7bef7bef7bef7bef737
:1045dc00bef7bef7bef7bef7bef7bef7bef7bef727
:1045ec00bef7bef7bef7bef7bef7bef7bef7bef717
:1045fc00bef7bef7bef7bef7bef7bef7bef7bef707
:10460c00bef7bef7bef7bef7bef7bef7bef7bef7f6
:10461c00bef7bef7bef7bef7bef7bef7bef7bef7e6
:10462c00bef7bef7bef7bef7bef7bef7bef7bef7d6
:10463c00bef7bef7bef7bef7bef79ef79ef79def2f
:10464c007def7def7def7def5def5ce73ce71ce7f9
:10465c00fbdefbdedbdedad6bad69ad679ce59cec5
:10466c0038c638c618c617bed7bdd6b5b6b5b6b59a
:10467c0096b555ad55ad34a534a514a5f39cf39c56
:10468c00d39cb29492949294718c718c518c518c69
:10469c004d6b452921082000210841086210821029
:1046ac00821082108210a210a318a318a318c3188a
:1046bc00c318c318c318e318e318e318e420e42064
:1046cc00e318e318e318e318c318c318c318c31886
:1046dc00a318a318a318a2108210821082108210a3
:1046ec00621061084108410821082108e420494a68
:1046fc00cb5aeb5aec620c634d6b8e73ae73cf7b63
:10470c00ef7b1084518c718c9294b294b294d39ca4
:10471c00139d34a534a555ad75ad75ad96b596b54f
:10472c00b6b5b6b5d6b5d7bdd7bdf7bd38c638c644
:10473c0038c658c659ce59ce59ce79ce79ce79ce07
:10474c0099ce99ce9ad69ad6bad6bad6bad6bad66f
:10475c00bad6dad6dbdedbdedbdedbdedbdefbde97
:10476c00fbdefbdefbdefbdefbdefbdefbdefbde75
:10477c00fbde1bdf1bdf1bdf1bdf1bdf1bdf1bdf7e
:10478c001bdf1bdf1bdf1bdf1bdf1bdf1ce71ce73b
:10479c001ce71ce71ce71ce71ce71ce71ce71ce7f5
:1047ac003ce71ce73ce73ce73ce73ce73ce73ce705
:1047bc003ce73ce73ce73ce73ce73ce73ce73ce7d5
:1047cc005ce75ce75ce75ce75ce75ce75ce75ce7c5
:1047dc005def5def5def5def5def5def5def5def6d
:1047ec005def5def5def5def5def5def5def5def5d
:1047fc005def5def5def5def5def5def7def7def0d
:10480c007def7def7def7def7def7def7def7def3c
:10481c007def7def7def7def7def7def7def7def2c
:10482c007def7def7def7def7def7def7def7def1c
:10483c007def7def7def9def9def9def9def9ef763
:10484c009ef79ef79ef79ef79ef79ef79ef79ef7b4
:10485c009ef79ef79ef79ef7bef7bef7bef7bef724
:10486c00bef7bef7bef7bef7bef7bef7bef7bef794
:10487c00bef7bef7bef7bef7bef7bef7bef7bef784
:10488c00bef7bef7bef7bef7bef7bef7bef7bef774
:10489c00bef7bef7bef7bef7bef7bef7bef7bef764
:1048ac00bef7bef7bef7bef7bef7bef7bef7bef754
:1048bc00bef7bef7bef7bef7bef7bef7bef7bef744
:1048cc00bef7bef7bef7bef7bef7bef7bef7bef734
:1048dc00bef7bef7bef7bef7bef7bef7bef7bef724
:1048ec00bef7bef7bef7bef7bef7bef7bef7bef714
:1048fc00bef7bef7bef7bef7bef7bef7bef7bef704
:10490c00bef7bef7bef7bef7bef7bef7bef7bef7f3
:10491c00bef7bef7bef7bef7bef7bef7bef7bef7e3
:10492c00bef7bef7bef7bef7bef7bef7bef7bef7d3
:10493c00bef7bef7bef7bef7bef7bef7bef7bef7c3
:10494c00bef7bef7bef7bef7bef7bef7bef7bef7b3
:10495c00bef7bef7bef7bef7bef7bef7bef7bef7a3
:10496c00bef7bef7bef7bef7bef7bef7bef7bef793
:10497c00bef7bef7bef7bef7bef7bef7bef7bef783
:10498c00bef7bef7bef7bef7bef7bef7bef7bef773
:10499c00bef7bef7bef7bef7bef7bef7bef7bef763
:1049ac00bef7bef7bef7bef7bef7bef7bef7bef753
:1049bc00bef7bef7bef7bef7bef7bef7bef7bef743
:1049cc00bef7bef7bef7bef7bef7bef7bef7bef733
:1049dc00bef7bef7bef7bef7bef7bef7bef7bef723
:1049ec00bef7bef7bef7bef7bef7bef7bef7bef713
:1049fc00bef7bef7bef7bef79ef79ef79ef77defac
:104a0c007def5def5def5ce73ce73ce71bdffbde3a
:104a1c00dbdedbdebad6bad699ce79ce59ce38c625
:104a2c0018c6f7bdd7bdb6b5b6b596b575ad55ad0f
:104a3c0055ad34a514a5139df39cf39cb294b2947c
:104a4c009294718c518c30843084518c1084494aee
:104a5c00821041086108610861086210821082109e
:104a6c00a210a318c318c318c318c318c318e3188b
:104a7c00e420e420042104210421e4200421042165
:104a8c000421042104210421042104210421e42013
:104a9c00e318c318c318c318a318a318a318a2109b
:104aac0082108210821061086108410800004108e0
:104abc008631aa52cb5aab5aeb5a0c632c634d6b12
:104acc006d6b8e73ae73ae73ef7b10843084518c30
:104adc00718c92949294b294d294d39cf39c139d27
:104aec0014a534a554a555ad55ad55ad75ad96b5bc
:104afc0096b5b6b5b6b5d6b5d7bdf7bdf7bdf7bd4e
:104b0c0018c618c618c638c638c658c659ce59ce97
:104b1c0079ce79ce79ce79ce79ce99ce9ad6bad6bf
:104b2c00bad6bad6bad6dad6dad6dbdedbdedbde3e
:104b3c00dbdedbdedbdefbdefbdefbdefbdefbde01
:104b4c00fbdefbdefbdefbdefbde1bdffbde1bdf4f
:104b5c001bdf1bdf1bdf1bdf1bdf1bdf1bdf1bdf79
:104b6c001bdf1bdf1ce71ce71ce71ce71ce71ce733
:104b7c001ce71ce71ce71ce71ce71ce73ce73ce7d1
:104b8c003ce73ce73ce73ce73ce73ce73ce73ce701
:104b9c003ce73ce73ce73ce73ce75ce75ce75ce791
:104bac005ce75ce75def5def5def5def5def5defab
:104bbc005def5def5def5def5def5def5def5def89
:104bcc005def5def5def5def5def5def5def5def79
:104bdc005def7def7def7def7def7def7def7def89
:104bec007def7def7def7def7def7def7def7def59
:104bfc007def7def7def7def7def7def7def7def49
:104c0c009def9def9def9def9def9ef79def9ef726
:104c1c009ef79ef79ef79ef79ef79ef79ef79ef7e0
:104c2c009ef79ef79ef79ef79ef79ef7bef7bef790
:104c3c00bef7bef7bef7bef7bef7bef7bef7bef7c0
:104c4c00bef7bef7bef7bef7bef7bef7bef7bef7b0
:104c5c00bef7bef7bef7bef7bef7bef7bef7bef7a0
:104c6c00bef7bef7bef7bef7bef7bef7bef7bef790
:104c7c00bef7bef7bef7bef7bef7bef7bef7bef780
:104c8c00bef7bef7bef7bef7bef7bef7bef7bef770
:104c9c00bef7bef7bef7bef7bef7bef7bef7bef760
:104cac00bef7bef7bef7bef7bef7bef7bef7bef750
:104cbc00bef7bef7bef7bef7bef7bef7bef7bef740
:104ccc00bef7bef7bef7bef7bef7bef7bef7bef730
:104cdc00bef7bef7bef7bef7bef7bef7bef7bef720
:104cec00bef7bef7bef7bef7bef7bef7bef7bef710
:104cfc00bef7bef7bef7bef7bef7bef7bef7bef700
:104d0c00bef7bef7bef7bef7bef7bef7bef7bef7ef
:104d1c00bef7bef7bef7bef7bef7bef7bef7bef7df
:104d2c00bef7bef7bef7bef7bef7bef7bef7bef7cf
:104d3c00bef7bef7bef7bef7bef7bef7bef7bef7bf
:104d4c00bef7bef7bef7bef7bef7bef7bef7bef7af
:104d5c00bef7bef7bef7bef7bef7bef7bef7bef79f
:104d6c00bef7bef7bef7bef7bef7bef7bef7bef78f
:104d7c00bef7bef7bef7bef7bef7bef7bef7bef77f
:104d8c00bef7bef7bef7bef7bef7bef7bef7bef76f
:104d9c00bef7bef7bef7bef7bef7bef7bef7bef75f
:104dac00bef7bef7bef7bef7bef7bef7bef7bef74f
:104dbc00bef7bef7bef79ef79ef79ef77def7def31
:104dcc005def5def5ce73ce73ce71ce7fbdefbde01
:104ddc00dbdebad69ad679ce59ce38c638c618c6c6
:104dec00f7bdd7bdb6b596b575ad55ad55ad54a59a
:104dfc0034a5139df39cd39cb294b2949294718c71
:104e0c00518c3084308410843084ae73652920003a
:104e1c0041086210621062108210a210a318a3182d
:104e2c00a318a318c318e318e420042104210421b7
:104e3c00e420e420e318c318a21082108210821020
:104e4c00821082108210a210a210a318e318e42082
:104e5c0004210421e420e420c318c318c318c31888
:104e6c00a318a318a21082108210621061082108e6
:104e7c0020000421494aaa52aa52ab5acb5aeb5ae7
:104e8c000c630c632d6b4d6b6d6b8e73ae73cf7ba4
:104e9c00cf7bef7bef7b10843084518c518c518c09
:104eac00718c92949294b294b294d294d39cd39cdd
:104ebc00f39c14a514a534a554a555ad55ad55ad0d
:104ecc0075ad75ad96b596b5b6b5b6b5b6b5d7bd27
:104edc00f7bdf7bdf7bd17be18c618c638c658c6fd
:104eec0058c659ce59ce59ce79ce79ce99ce99cec7
:104efc009ad69ad6bad6bad6bad6bad6dad6dad626
:104f0c00dad6dbdedbdedbdedbdedbdedbdedbded6
:104f1c00fbdefbdefbdefbdefbdefbdefbdefbdebd
:104f2c00fbdefbde1bdf1bdf1bdf1bdf1bdf1bdfe7
:104f3c001bdf1bdf1bdf1bdf1bdf1ce71ce71ce77a
:104f4c001ce71ce71ce71ce71ce71ce71ce71ce73d
:104f5c001ce73ce73ce71ce73ce73ce73ce73ce76d
:104f6c003ce73ce73ce73ce73ce73ce73ce73ce71d
:104f7c005ce75ce75ce75ce75ce75def5def5deff2
:104f8c005def5def5def5def5def5def5def5defb5
:104f9c005def5def5def5def5def5def5def5defa5
:104fac005def5def5def5def5def5def5def7def75
:104fbc007def7def7def7def7def7def7def7def85
:104fcc007def7def7def7def7def9def9def9def15
:104fdc009def9def9def9def9def9def9def9def65
:104fec009def9def9def9def9def9ef79ef79ef73a
:104ffc009ef79ef79ef79ef79ef79ef79ef79ef7fd
:10500c00bef7bef79ef79ef7bef7bef7bef7bef72c
:10501c00bef7bef7bef7bef7bef7bef7bef7bef7dc
:10502c00bef7bef7bef7bef7bef7bef7bef7bef7cc
:10503c00bef7bef7bef7bef7bef7bef7bef7bef7bc
:10504c00bef7bef7bef7bef7bef7bef7bef7bef7ac
:10505c00bef7bef7bef7bef7bef7bef7bef7bef79c
:10506c00bef7bef7bef7bef7bef7bef7bef7bef78c
:10507c00bef7bef7bef7bef7bef7bef7bef7bef77c
:10508c00bef7bef7bef7bef7bef7bef7bef7bef76c
:10509c00bef7bef7bef7bef7bef7bef7bef7bef75c
:1050ac00bef7bef7bef7bef7bef7bef7bef7bef74c
:1050bc00bef7bef7bef7bef7bef7bef7bef7bef73c
:1050cc00bef7bef7bef7bef7bef7bef7bef7bef72c
:1050dc00bef7bef7bef7bef7bef7bef7bef7bef71c
:1050ec00bef7bef7bef7bef7bef7bef7bef7bef70c
:1050fc00bef7bef7bef7bef7bef7bef7bef7bef7fc
:10510c00bef7bef7bef7bef7bef7bef7bef7bef7eb
:10511c00bef7bef7bef7bef7bef7bef7bef7bef7db
:10512c00bef7bef7bef7bef7bef7bef7bef7bef7cb
:10513c00bef7bef7bef7bef7bef7bef7bef7bef7bb
:10514c00bef7bef7bef7bef7bef7bef7bef7bef7ab
:10515c00bef7bef7bef7bef7bef7bef7bef7bef79b
:10516c00bef7bef7bef7bef7bef7bef7bef7bef78b
:10517c00bef7bef79ef79ef79def7def7def7defbf
:10518c005def5ce75ce73ce71ce7fbdefbdedad6b9
:10519c00bad69ad679ce59ce38c638c618c6f7bd07
:1051ac00b6b5b6b5b6b575ad55ad55ad34a5f39c24
:1051bc00f39cd39cd294b29492949294518c30845c
:1051cc0030841084ef7b10842c6304212108610847
:1051dc00621062108210a210a210a318c318c31878
:1051ec00e318e318e42004210421e420e318a318b5
:1051fc008210a210c3186529e739494aaa52eb5a02
:10520c00eb5aeb5aaa52084208426631e420a31822
:10521c008210a318c318e420e420e420e318e31858
:10522c00c318c318c318a318a210821082106210de
:10523c00610820008210c739aa52aa52aa52ab5a4e
:10524c00cb5aeb5a0c630c632c632c634d6b4d6b7c
:10525c006d6b6d6b8e738e738e73ae73ae73cf7b03
:10526c00cf7bcf7bef7b1084108430843084518cc7
:10527c00518c718c718c92949294b294b294d39c04
:10528c00d39cf39cf39c14a514a534a534a555ad5f
:10529c0055ad55ad75ad75ad96b596b596b5b6b56e
:1052ac00b6b5d6b5d7bdd7bdf7bdf7bd17be18c6b9
:1052bc0018c638c638c638c659ce59ce79ce79ce2e
:1052cc0079ce99ce9ad69ad69ad69ad6bad6bad644
:1052dc00bad6bad6bad6dad6dbdedbdedbdedbde7e
:1052ec00dbdedbdedbdefbdefbdefbdefbdefbde4a
:1052fc00fbdefbdefbdefbdefbdefbdefbde1bdfb9
:10530c001bdf1bdf1bdf1bdf1bdf1bdf1bdf1bdfc1
:10531c001bdf1bdf1ce71ce71ce71ce71ce71ce77b
:10532c001ce71ce71ce71ce71ce73ce71ce73ce719
:10533c003ce73ce73ce73ce73ce73ce73ce73ce749
:10534c003ce73ce73ce73ce73ce73ce75ce75ce7f9
:10535c005ce75ce75def5def5def5def5def5deff3
:10536c005def5def5def5def5def5def5def5defd1
:10537c005def5def5def5def5def5def5def5defc1
:10538c005def5def5def5def7def7def7def7def31
:10539c007def7def7def7def7def9def9def9def41
:1053ac009def9def9def9def9def9def9def9def91
:1053bc009def9def9def9def9def9def9def9def81
:1053cc009ef79ef79ef79ef79ef79ef79ef79ef729
:1053dc009ef79ef79ef79ef79ef7bef7bef7bef7b9
:1053ec00bef7bef7bef7bef7bef7bef7bef7bef709
:1053fc00bef7bef7bef7bef7bef7bef7bef7bef7f9
:10540c00bef7bef7bef7bef7bef7bef7bef7bef7e8
:10541c00bef7bef7bef7bef7bef7bef7bef7bef7d8
:10542c00bef7bef7bef7bef7bef7bef7bef7bef7c8
:10543c00bef7bef7bef7bef7bef7bef7bef7bef7b8
:10544c00bef7bef7bef7bef7bef7bef7bef7bef7a8
:10545c00bef7bef7bef7bef7bef7bef7bef7bef798
:10546c00bef7bef7bef7bef7bef7bef7bef7bef788
:10547c00bef7bef7bef7bef7bef7bef7bef7bef778
:10548c00bef7bef7bef7bef7bef7bef7bef7bef768
:10549c00bef7bef7bef7bef7bef7bef7bef7bef758
:1054ac00bef7bef7bef7bef7bef7bef7bef7bef748
:1054bc00bef7bef7bef7bef7bef7bef7bef7bef738
:1054cc00bef7bef7bef7bef7bef7bef7bef7bef728
:1054dc00bef7bef7bef7bef7bef7bef7bef7bef718
:1054ec00bef7bef7bef7bef7bef7bef7bef7bef708
:1054fc00bef7bef7bef7bef7bef7bef7bef7bef7f8
:10550c00bef7bef7bef7bef7bef7bef7bef7bef7e7
:10551c00bef7bef7bef7bef7bef7bef7bef7bef7d7
:10552c00bef7bef7bef7bef7bef7bef7bef7bef7c7
:10553c00bef7bef79ef79ef79def7def5def5def3b
:10554c005ce73ce73ce71bdffbdefbdedbdebad6d1
:10555c009ad679ce59ce38c638c617bed7bdb6b591
:10556c00b6b596b555ad55ad34a514a5f39cd39ce5
:10557c00b294b294718c718c518c518c3084108497
:10558c00ef7bcf7bef7bab5a82102108621082102d
:10559c0082108210a210a318c318c318e318e318c2
:1055ac00e42004210421e420a3188210e318c73955
:1055bc00cb5aef7bb294f39cb6b555ad718cef7ba7
:1055cc008e736d6b4d6b8e73cf7bcf7bef7b6d6b67
:1055dc00ab5ac73904218210a318e42004210421fa
:1055ec000421e318c318c318a318a318a21082101f
:1055fc008210621021084108a631694a8a52aa52c7
:10560c00aa52ab5acb5aeb5aeb5aeb5aec620c63dc
:10561c002c632c632d6b4d6b4d6b4d6b4d6b4d6b30
:10562c006d6b6d6b6d6b6d6b8e738e73ae73ae73ca
:10563c00cf7bcf7bef7bef7b108410843084308466
:10564c00518c518c718c718c718c92949294b2940b
:10565c00b294d294d39cf39cf39c139d139d14a5ec
:10566c0014a534a534a555ad75ad75ad75ad96b510
:10567c0096b5b6b5b6b5b6b5b6b5d6b5d7bdf7bd54
:10568c00f7bd17be18c618c638c638c638c658c6b1
:10569c0059ce79ce79ce79ce79ce99ce99ce9ad67d
:1056ac009ad6bad6bad6bad6bad6bad6bad6bad68e
:1056bc00dad6dad6dad6dbdedbdedbdedbdedbde31
:1056cc00fbdefbdefbdefbdefbdefbdefbdefbde06
:1056dc00fbdefbde1bdf1bdf1bdf1bdf1bdf1bdf30
:1056ec001bdf1bdf1bdf1bdf1bdf1bdf1ce71ce7cc
:1056fc001ce71ce71ce71ce71ce71ce71ce71ce786
:10570c001ce71ce71ce73ce73ce73ce73ce73ce7d5
:10571c003ce73ce73ce73ce73ce73ce73ce73ce765
:10572c003ce73ce75ce75ce75ce75ce75ce75def8c
:10573c005def5def5def5def5def5def5def5deffd
:10574c005def5def5def5def5def5def5def5defed
:10575c005def5def5def5def5def7def7def7def7d
:10576c007def7def7def7def7def7def7def7defcd
:10577c007def7def9def9def9def9def9def9deffd
:10578c009def9def9def9def9def9def9def9defad
:10579c009def9def9def9def9ef79ef79ef79ef779
:1057ac009ef79ef79ef79ef79ef7bef7bef7bef7e5
:1057bc00bef7bef7bef7bef7bef7bef7bef7bef735
:1057cc00bef7bef7bef7bef7bef7bef7bef7bef725
:1057dc00bef7bef7bef7bef7bef7bef7bef7bef715
:1057ec00bef7bef7bef7bef7bef7bef7bef7bef705
:1057fc00bef7bef7bef7bef7bef7bef7bef7bef7f5
:10580c00bef7bef7bef7bef7bef7bef7bef7bef7e4
:10581c00bef7bef7bef7bef7bef7bef7bef7bef7d4
:10582c00bef7bef7bef7bef7bef7bef7bef7bef7c4
:10583c00bef7bef7bef7bef7bef7bef7bef7bef7b4
:10584c00bef7bef7bef7bef7bef7bef7bef7bef7a4
:10585c00bef7bef7bef7bef7bef7bef7bef7bef794
:10586c00bef7bef7bef7bef7bef7bef7bef7bef784
:10587c00bef7bef7bef7bef7bef7bef7bef7bef774
:10588c00bef7bef7bef7bef7bef7bef7bef7bef764
:10589c00bef7bef7bef7bef7bef7bef7bef7bef754
:1058ac00bef7bef7bef7bef7bef7bef7bef7bef744
:1058bc00bef7bef7bef7bef7bef7bef7bef7bef734
:1058cc00bef7bef7bef7bef7bef7bef7bef7bef724
:1058dc00bef7bef7bef7bef7bef7bef7bef7bef714
:1058ec00bef7bef7bef7bef7bef7bef7bef7bef704
:1058fc00bef7bef79ef79def7def5def5def5ce7ca
:10590c003ce73ce71bdffbdefbdedbdebad69ad6e0
:10591c0079ce59ce38c618c6f7bdd7bdb6b596b533
:10592c0075ad55ad34a534a5139df39cd39cb294a1
:10593c009294718c518c518c30841084ef7bcf7b82
:10594c00cf7bef7baa52621041086210821082104a
:10595c00a210a318c318c318c318e31804210421f8
:10596c000421c318a210c318a6310c631084518ce7
:10597c0010846d6bcb5a494ae841c739c739c739ce
:10598c00a739c739a739a631a631c739e739694aca
:10599c002c63ae73ef7b0c63e739c3188210c3180a
:1059ac00042104210421e420c318c318c318a3182c
:1059bc00a21082108210610841086529494a694a7f
:1059cc008a528a52aa52aa52aa52aa52cb5acb5ad9
:1059dc00eb5aeb5a0c630c630c630c630c632c6377
:1059ec002c632c632c632d6b6d6b6d6b6d6b6d6b06
:1059fc008e738e738e738e73ae73ae73cf7bcf7bc1
:105a0c00cf7bcf7bcf7bef7bef7bef7bef7b108470
:105a1c0030843084518c518c518c718c718c92945b
:105a2c009294b294b294d294d294d39cd39cf39c7f
:105a3c00139d14a534a534a534a554a555ad55ad69
:105a4c0075ad75ad96b596b596b5b6b5b6b5b6b5e4
:105a5c00d7bdd7bdd7bdf7bdf7bdf7bdf7bd18c6d0
:105a6c0018c638c638c638c658c659ce59ce79ce9f
:105a7c0079ce79ce99ce9ad69ad69ad6bad6bad6b5
:105a8c00bad6bad6bad6bad6bad6bad6dad6dbde41
:105a9c00dbdedbdedbdedbdedbdefbdefbdefbded2
:105aac00fbdefbdefbdefbdefbdefbdefbdefbde22
:105abc001bdf1bdf1bdf1bdf1bdf1bdf1bdf1bdf0a
:105acc001bdf1bdf1ce71ce71ce71ce71ce71ce7c4
:105adc003ce73ce73ce73ce73ce73ce73ce73ce7a2
:105aec003ce73ce73ce73ce73ce73ce73ce73ce792
:105afc003ce73ce73ce73ce73ce75ce75ce75ce722
:105b0c005ce75ce75ce75ce75def5def5def5def4d
:105b1c005def5def5def5def5def5def5def5def19
:105b2c005def5def5def5def5def5def5def5def09
:105b3c005def5def5def7def7def7def7def7def59
:105b4c007def7def7def7def7def7def9def9defa9
:105b5c009def9def9def9def9def9def9def9defd9
:105b6c009def9def9def9def9def9def9def9defc9
:105b7c009def9ef79ef79ef79ef79ef79ef79ef77a
:105b8c009ef7bef7bef7bef7bef7bef7bef7bef781
:105b9c00bef7bef7bef7bef7bef7bef7bef7bef751
:105bac00bef7bef7bef7bef7bef7bef7bef7bef741
:105bbc00bef7bef7bef7bef7bef7bef7bef7bef731
:105bcc00bef7bef7bef7bef7bef7bef7bef7bef721
:105bdc00bef7bef7bef7bef7bef7bef7bef7bef711
:105bec00bef7bef7bef7bef7bef7bef7bef7bef701
:105bfc00bef7bef7bef7bef7bef7bef7bef7bef7f1
:105c0c00bef7bef7bef7bef7bef7bef7bef7bef7e0
:105c1c00bef7bef7bef7bef7bef7bef7bef7bef7d0
:105c2c00bef7bef7bef7bef7bef7bef7bef7bef7c0
:105c3c00bef7bef7bef7bef7bef7bef7bef7bef7b0
:105c4c00bef7bef7bef7bef7bef7bef7bef7bef7a0
:105c5c00bef7bef7bef7bef7bef7bef7bef7bef790
:105c6c00bef7bef7bef7bef7bef7bef7bef7bef780
:105c7c00bef7bef7bef7bef7bef7bef7bef7bef770
:105c8c00bef7bef7bef7bef7bef7bef7bef7bef760
:105c9c00bef7bef7bef7bef7bef7bef7bef7bef750
:105cac00bef7bef7bef7bef7bef7bef7bef7bef740
:105cbc00bef79def9def7def5def5def5def5ce778
:105ccc003ce71ce71bdffbdedbdebad69ad699ceaf
:105cdc0059ce38c618c6f7bdd7bdb6b596b575ad95
:105cec0055ad34a514a5139df39cd2949294718c4c
:105cfc00718c518c308410841084cf7bcf7bcf7b04
:105d0c00cf7baa5282104108821082108210a210fe
:105d1c00a318c318c318e318e42004210421e318c2
:105d2c00a210c318e739ae731084eb5a86312529bb
:105d3c006631c7392842cb5a8e7310843084cf7b9e
:105d4c006d6beb5a694a494a0842e739c739a7399a
:105d5c00863186310842eb5aef7b8e732842e42061
:105d6c008210c31804210421e420e318c318c318bb
:105d7c00a318a318a210a210621020002421494ad3
:105d8c00694a694a694a694a8a528a52aa52aa528b
:105d9c00ab5aab5acb5acb5acb5acb5acb5aeb5aef
:105dac00eb5aeb5aeb5aec620c630c630c632c63ee
:105dbc002d6b4d6b4d6b4d6b4d6b4d6b6d6b6d6bf7
:105dcc006d6b8e738e738e738e73ae73ae73ae7388
:105ddc00cf7bcf7bcf7bef7bef7bef7bef7b10849d
:105dec0010841084108430843084518c518c518cec
:105dfc00718c718c9294b294b294b294d294d39cd0
:105e0c00d39cf39cf39cf39c14a534a534a534a526
:105e1c0055ad55ad55ad55ad75ad75ad75ad96b5bd
:105e2c0096b5b6b5b6b5d7bdd7bdf7bdf7bdf7bd01
:105e3c00f7bd17be18c618c618c638c638c638c639
:105e4c0058c659ce59ce79ce79ce79ce79ce9ad64e
:105e5c009ad69ad69ad6bad6bad6bad6bad6bad616
:105e6c00bad6bad6dad6dad6dbdedbdedbdedbdec2
:105e7c00dbdedbdedbdefbdefbdefbdefbdefbdeae
:105e8c00fbdefbde1bdf1bdffbdefbde1bdf1bdfba
:105e9c001bdf1bdf1bdf1bdf1bdf1bdf1ce71ce714
:105eac001ce71ce71ce71ce71ce71ce73ce73ce78e
:105ebc003ce73ce73ce73ce73ce73ce73ce73ce7be
:105ecc003ce73ce73ce73ce73ce73ce73ce73ce7ae
:105edc003ce73ce75ce75ce75ce75ce75ce75ce7de
:105eec005ce75ce75def5def5def5def5def5def58
:105efc005def5def5def5def5def5def5def5def36
:105f0c005def5def5def5def5def5def5def7def05
:105f1c007def7def7def7def7def7def7def7def15
:105f2c007def7def9def9def9def7def9def9def65
:105f3c009def9def9def9def9def9def9def9deff5
:105f4c009def9def9def9def9ef79ef79ef79ef7c1
:105f5c009ef79ef79ef79ef7bef7bef7bef7bef70d
:105f6c00bef7bef7bef7bef7bef7bef7bef7bef77d
:105f7c00bef7bef7bef7bef7bef7bef7bef7bef76d
:105f8c00bef7bef7bef7bef7bef7bef7bef7bef75d
:105f9c00bef7bef7bef7bef7bef7bef7bef7bef74d
:105fac00bef7bef7bef7bef7bef7bef7bef7bef73d
:105fbc00bef7bef7bef7bef7bef7bef7bef7bef72d
:105fcc00bef7bef7bef7bef7bef7bef7bef7bef71d
:105fdc00bef7bef7bef7bef7bef7bef7bef7bef70d
:105fec00bef7bef7bef7bef7bef7bef7bef7bef7fd
:105ffc00bef7bef7bef7bef7bef7bef7bef7bef7ed
:10600c00bef7bef7bef7bef7bef7bef7bef7bef7dc
:10601c00bef7bef7bef7bef7bef7bef7bef7bef7cc
:10602c00bef7bef7bef7bef7bef7bef7bef7bef7bc
:10603c00bef7bef7bef7bef7bef7bef7bef7bef7ac
:10604c00bef7bef7bef7bef7bef7bef7bef7bef79c
:10605c00bef7bef7bef7bef7bef7bef7bef7bef78c
:10606c00bef7bef7bef7bef7bef7bef7bef7bef77c
:10607c009ef79def9def7def5def5ce75ce73ce706
:10608c003ce71bdffbdefbdedad6bad699ce59ce67
:10609c0038c638c6f7bdf7bdb6b596b575ad55adb6
:1060ac0034a514a5f39cd39cb2949294718c518c0e
:1060bc00308430841084ef7bcf7bae73ae73cf7b98
:1060cc00aa528210410862108210a210a318c318a1
:1060dc00c318c318e420042104210421a318a2101e
:1060ec00c739ae73cf7b294ae420a318e318e42008
:1060fc004529cb5a718cd6b559ce17be14a5518ce7
:10610c00ae73084266312842494a28420842084286
:10611c00e739e739c73986316631294aae73cf7b07
:10612c00e841c3188210e31804210421e420e31889
:10613c00c318a318c318a210a21062102108252995
:10614c00494a494a494a694a694a694a694a694a0b
:10615c008a528a52aa52aa52aa52aa52aa52aa5293
:10616c00aa52aa52aa52cb5acb5acb5acb5aeb5a56
:10617c00eb5aeb5aec620c630c630c630c630c6310
:10618c000c632c632c632d6b4d6b4d6b6d6b6d6bbe
:10619c006d6b6d6b6d6b8e738e73ae73ae73cf7bdd
:1061ac00cf7bcf7bcf7bcf7bef7bef7bef7bef7b13
:1061bc00ef7b1084108410841084308430843084fd
:1061cc00518c518c518c718c718c929492949294c0
:1061dc00b294b294d39cd39cf39cf39c139d139dcb
:1061ec0014a534a534a534a555ad55ad55ad75ad37
:1061fc0075ad96b596b596b5b6b5b6b5b6b5d6b5c4
:10620c00d7bdd7bdd7bdf7bdf7bdf7bd17be18c6f7
:10621c0018c638c638c638c638c659ce59ce59ce27
:10622c0079ce79ce79ce99ce9ad69ad69ad69ad666
:10623c00bad6bad6bad6bad6bad6bad6dad6dad692
:10624c00dad6dbdedbdedbdedbdedbdefbdefbde43
:10625c00fbdefbdefbdefbdefbdefbdefbdefbde6a
:10626c00fbdefbdefbde1bdf1bdf1bdf1bdf1bdfb5
:10627c001bdf1bdf1bdf1bdf1ce71ce71ce71ce71e
:10628c001ce71ce71ce71ce73ce73ce73ce73ce76a
:10629c003ce73ce73ce73ce73ce73ce73ce73ce7da
:1062ac003ce73ce73ce73ce73ce73ce73ce73ce7ca
:1062bc003ce75ce75ce75ce75ce75ce75def5defc8
:1062cc005def5def5def5def5def5def5def5def62
:1062dc005def5def5def5def5def5def5def5def52
:1062ec005def5def7def7def7def7def7def7def82
:1062fc007def7def7def7def7def7def7def7def32
:10630c007def7def9def9def9def9def9def9def61
:10631c009def9def9def9ef79ef79ef79def9ef7ed
:10632c009ef7bef7bef7bef7bef7bef7bef7bef7d9
:10633c00bef7bef7bef7bef7bef7bef7bef7bef7a9
:10634c00bef7bef7bef7bef7bef7bef7bef7bef799
:10635c00bef7bef7bef7bef7bef7bef7bef7bef789
:10636c00bef7bef7bef7bef7bef7bef7bef7bef779
:10637c00bef7bef7bef7bef7bef7bef7bef7bef769
:10638c00bef7bef7bef7bef7bef7bef7bef7bef759
:10639c00bef7bef7bef7bef7bef7bef7bef7bef749
:1063ac00bef7bef7bef7bef7bef7bef7bef7bef739
:1063bc00bef7bef7bef7bef7bef7bef7bef7bef729
:1063cc00bef7bef7bef7bef7bef7bef7bef7bef719
:1063dc00bef7bef7bef7bef7bef7bef7bef7bef709
:1063ec00bef7bef7bef7bef7bef7bef7bef7bef7f9
:1063fc00bef7bef7bef7bef7bef7bef7bef7bef7e9
:10640c00bef7bef7bef7bef7bef7bef7bef7bef7d8
:10641c00bef7bef7bef7bef7bef7bef7bef7bef7c8
:10642c00bef7bef7bef7bef7bef7bef7bef79ef7d8
:10643c009def9def7def5def5def5ce75ce73ce78b
:10644c001bdffbdedbdedad6bad699ce79ce58c6a8
:10645c0018c618c6f7bdd7bdb6b575ad55ad34a5c4
:10646c0034a5139dd39cb29492949294718c3084e5
:10647c0010841084ef7bcf7bae738e73cf7b0c6359
:10648c00c318210861088210a210c318c318c318be
:10649c00e318e42004210421e42082102421ec627e
:1064ac00ef7b694aa2108210e42004210421e4202d
:1064bc00e3188631ab5acb5a694a28420842084243
:1064cc00c7398210e4206529284228420842084234
:1064dc000842e739c739a6314529c318c318c7394b
:1064ec00ae73ae73a6318210a318042104210421cb
:1064fc00e318c318c318c318a318a21082104108bc
:10650c0065292842494a494a494a494a494a494a15
:10651c00694a694a694a694a8a528a528a528a5233
:10652c008a528a528a52aa52aa52aa52aa52aa52df
:10653c00aa52ab5aab5acb5acb5acb5acb5aeb5a70
:10654c00eb5aeb5aeb5aec620c630c632c632c6326
:10655c002c632d6b2d6b4d6b4d6b4d6b4d6b6d6bb8
:10656c006d6b6d6b6d6b6d6b8e738e738e73ae739b
:10657c00ae73ae73cf7bcf7bcf7bcf7bcf7bef7bf1
:10658c00ef7bef7b10841084108410841084308493
:10659c003084308430843084518c518c518c718c8b
:1065ac00718c929492949294b294b294d294d39c0f
:1065bc00d39cf39cf39cf39c14a514a534a534a58f
:1065cc0034a555ad55ad55ad75ad75ad96b596b506
:1065dc0096b5b6b5b6b5b6b5b6b5d7bdd7bdd7bdfc
:1065ec00f7bdf7bdf7bd18c618c618c618c638c60d
:1065fc0038c638c658c659ce59ce79ce79ce79ce52
:10660c0079ce99ce9ad69ad69ad6bad6bad6bad6d0
:10661c00bad6bad6bad6bad6dad6dbdedbdedbde53
:10662c00dbdedbdedbdefbdefbdefbdefbdefbdef6
:10663c00fbdefbdefbdefbdefbdefbde1bdffbde65
:10664c001bdffbde1bdf1bdf1bdf1bdf1bdf1ce786
:10665c001ce71ce71ce71ce71ce71ce71ce71ce716
:10666c001ce73ce73ce73ce73ce73ce73ce73ce726
:10667c003ce73ce73ce73ce73ce73ce73ce73ce7f6
:10668c003ce73ce73ce73ce75ce75ce75ce75ce766
:10669c005ce75ce75ce75def5def5def5def5defa9
:1066ac005def5def5def5def5def5def5def5def7e
:1066bc005def5def5def5def5def5def7def7def2e
:1066cc007def7def7def7def7def7def7def7def5e
:1066dc007def7def9def9def9def9def9def9def8e
:1066ec009ef79ef79ef79ef79ef79ef79ef79ef7f6
:1066fc009ef79ef79ef7bef7bef7bef7bef7bef746
:10670c00bef7bef7bef7bef7bef7bef7bef7bef7d5
:10671c00bef7bef7bef7bef7bef7bef7bef7bef7c5
:10672c00bef7bef7bef7bef7bef7bef7bef7bef7b5
:10673c00bef7bef7bef7bef7bef7bef7bef7bef7a5
:10674c00bef7bef7bef7bef7bef7bef7bef7bef795
:10675c00bef7bef7bef7bef7bef7bef7bef7bef785
:10676c00bef7bef7bef7bef7bef7bef7bef7bef775
:10677c00bef7bef7bef7bef7bef7bef7bef7bef765
:10678c00bef7bef7bef7bef7bef7bef7bef7bef755
:10679c00bef7bef7bef7bef7bef7bef7bef7bef745
:1067ac00bef7bef7bef7bef7bef7bef7bef7bef735
:1067bc00bef7bef7bef7bef7bef7bef7bef7bef725
:1067cc00bef7bef7bef7bef7bef7bef7bef7bef715
:1067dc00bef7bef7bef7bef7bef7bef7bef7bef705
:1067ec00bef7bef7bef7bef7bef7bef7bef79ef715
:1067fc009def7def7def5def5def5ce73ce71ce728
:10680c00fbdedbdedbdebad69ad679ce59ce38c6c5
:10681c0018c6f7bdd7bdb6b596b555ad55ad34a5b3
:10682c00f39cf39cb2949294718c518c3084308490
:10683c001084ef7bcf7bae738e73ae734d6b2421c4
:10684c00410862106210a210c318c318c318e318d1
:10685c00042104210421c3188210c739cf7b4d6b4e
:10686c00452945292842694a694a494ac73945296f
:10687c00e420c31804216631a631c739e739084230
:10688c00c73924214529a63108420842084208424a
:10689c00e739c73986312421042104210421a318a6
:1068ac00c318694aef7bcb5ac31882100421042108
:1068bc000421e420c318c318c318a318a31882100a
:1068cc0061086529284208422842294a294a294a4e
:1068dc00294a294a294a494a494a494a494a494a74
:1068ec00494a694a494a494a694a694a694a694a64
:1068fc00694a8a528a528a52aa52aa52aa52aa5255
:10690c00aa52aa52aa52aa52ab5acb5aeb5aeb5ad7
:10691c00eb5aeb5a0c630c630c630c632c632c6307
:10692c002c632d6b2d6b2d6b4d6b4d6b4d6b4d6b24
:10693c004d6b6d6b6d6b6d6b6d6b6d6b8e738e7359
:10694c008e73ae73ae73ae73cf7bcf7bcf7bcf7baf
:10695c00ef7bef7bcf7bef7bef7bef7bef7bef7bfb
:10696c00108410841084108430843084518c518ca9
:10697c00518c518c518c718c718c92949294b294e8
:10698c00b294b294d294d39cd39cd39cf39cf39c9e
:10699c00f39c14a514a534a534a534a555ad55ad5b
:1069ac0055ad75ad75ad96b596b596b596b5b6b5fe
:1069bc00b6b5b6b5b6b5d6b5d7bdd7bdf7bdf7bd6f
:1069cc00f7bd17be18c638c638c638c638c659ce35
:1069dc0059ce59ce79ce79ce79ce79ce99ce9ad66a
:1069ec009ad69ad6bad69ad69ad69ad6bad6bad6bb
:1069fc00bad6dad6dad6dbdedbdedbdedbdedbdefe
:106a0c00fbdefbdefbdefbdefbdefbdefbdefbdeb2
:106a1c00fbdefbdefbdefbde1bdffbde1bdf1bdf3f
:106a2c001bdf1bdf1bdf1bdf1ce71bdf1bdf1ce778
:106a3c001ce71ce71ce71ce73ce73ce73ce73ce7b2
:106a4c003ce73ce73ce73ce73ce73ce73ce73ce722
:106a5c003ce73ce73ce73ce73ce73ce73ce73ce712
:106a6c003ce75ce75ce75ce75ce75ce75ce75ce722
:106a7c005def5def5def5def5def5def5def5defaa
:106a8c005def5def5def5def5def5def5def5def9a
:106a9c005def7def7def7def7def7def7def7defaa
:106aac009def9def9def9def9def9ef79ef79ef75f
:106abc009ef79ef79ef79ef79ef79ef7bef7bef7e2
:106acc00bef7bef7bef7bef7bef7bef7bef7bef712
:106adc00bef7bef7bef7bef7bef7bef7bef7bef702
:106aec00bef7bef7bef7bef7bef7bef7bef7bef7f2
:106afc00bef7bef7bef7bef7bef7bef7bef7bef7e2
:106b0c00bef7bef7bef7bef7bef7bef7bef7bef7d1
:106b1c00bef7bef7bef7bef7bef7bef7bef7bef7c1
:106b2c00bef7bef7bef7bef7bef7bef7bef7bef7b1
:106b3c00bef7bef7bef7bef7bef7bef7bef7bef7a1
:106b4c00bef7bef7bef7bef7bef7bef7bef7bef791
:106b5c00bef7bef7bef7bef7bef7bef7bef7bef781
:106b6c00bef7bef7bef7bef7bef7bef7bef7bef771
:106b7c00bef7bef7bef7bef7bef7bef7bef7bef761
:106b8c00bef7bef7bef7bef7bef7bef7bef7bef751
:106b9c00bef7bef7bef7bef7bef7bef7bef7bef741
:106bac00bef7bef7bef7bef7bef7bef79ef79def7a
:106bbc007def7def5def5def5def3ce71ce7fbde0e
:106bcc00fbdedbdedad6bad699ce59ce38c618c67d
:106bdc00f7bdd7bdb6b596b575ad55ad34a514a5f5
:106bec00f39cd294b2949294518c3084308410845f
:106bfc00cf7bae73ae738e738e738e73a7394108d1
:106c0c00621082108210a318c318c318e318042151
:106c1c0024212529c3188210494aef7b8a52e84166
:106c2c004d6bd39c18c675ad1084ef7b10848e739e
:106c3c00494a2421c3186529294a494a2842494a04
:106c4c00494a494ac739284208420842e841e739cb
:106c5c00c73945290421e318e318e420e420042172
:106c6c000421a21024214d6b6d6b45296210e31891
:106c7c0024210421e318c318c318c318a318a210a5
:106c8c0062106108863108420842084208420842f4
:106c9c0008422842284228422842284228422842b8
:106cac002842284228422842294a2842294a294a6d
:106cbc00294a494a494a494a694a8a52694a694aa7
:106ccc00694a8a528a52694a8a52aa52aa52ab5ac1
:106cdc00ab5aab5acb5acb5acb5acb5acb5acb5ac0
:106cec00cb5aeb5aeb5aeb5aec620c630c630c6309
:106cfc000c632c632c632c634d6b2d6b4d6b4d6bac
:106d0c004d6b4d6b4d6b6d6b6d6b6d6b6d6b6d6b17
:106d1c008e738e738e738e73ae73ae73ae73ae73df
:106d2c00cf7bcf7bcf7bef7bef7bef7bef7bef7b67
:106d3c00ef7b1084108410841084108410841084d1
:106d4c001084308430843084518c518c518c718cf3
:106d5c00718c718c929492949294b294b294b294e9
:106d6c00d294d39cf39cf39cf39c139d14a514a573
:106d7c0034a534a534a554a555ad55ad75ad75ad3b
:106d8c0075ad75ad96b596b596b5b6b5b6b5d6b571
:106d9c00d6b5d7bdf7bdf7bdf7bdf7bdf7bd18c666
:106dac0018c618c638c638c638c638c659ce59ced5
:106dbc0059ce79ce79ce79ce99ce99ce9ad69ad61d
:106dcc009ad6bad6bad6bad6bad6bad6dbdedbde05
:106ddc00dbdedbdedbdefbdefbdefbdefbdefbde3f
:106dec00fbdefbdefbdefbdefbdefbdefbdefbdecf
:106dfc00fbdefbde1bdf1bdf1bdf1bdf1bdf1bdff9
:106e0c001bdf1bdf1bdf1ce71ce71ce71ce71ce779
:106e1c001ce73ce73ce73ce73ce73ce73ce73ce76e
:106e2c003ce73ce73ce73ce73ce73ce73ce73ce73e
:106e3c003ce73ce73ce73ce73ce73ce75ce75ce7ee
:106e4c005ce75ce75def5def5def5def5def5defe8
:106e5c005def5def5def5def5def7def5def7def86
:106e6c007def7def7def7def7def7def7def7defb6
:106e7c007def9def9def9def9def9def9def9defc6
:106e8c009ef79def9ef79ef79ef79ef79ef79ef757
:106e9c009ef79ef79ef7bef7bef7bef7bef7bef79e
:106eac00bef7bef7bef7bef7bef7bef7bef7bef72e
:106ebc00bef7bef7bef7bef7bef7bef7bef7bef71e
:106ecc00bef7bef7bef7bef7bef7bef7bef7bef70e
:106edc00bef7bef7bef7bef7bef7bef7bef7bef7fe
:106eec00bef7bef7bef7bef7bef7bef7bef7bef7ee
:106efc00bef7bef7bef7bef7bef7bef7bef7bef7de
:106f0c00bef7bef7bef7bef7bef7bef7bef7bef7cd
:106f1c00bef7bef7bef7bef7bef7bef7bef7bef7bd
:106f2c00bef7bef7bef7bef7bef7bef7bef7bef7ad
:106f3c00bef7bef7bef7bef7bef7bef7bef7bef79d
:106f4c00bef7bef7bef7bef7bef7bef7bef7bef78d
:106f5c00bef7bef7bef7bef7bef7bef7bef7bef77d
:106f6c00bef7bef7bef7bef7bef79ef79def7defff
:106f7c007def7def5def5def5ce73ce71ce7fbde53
:106f8c00fbdedbdebad699ce79ce59ce38c6f7bd4c
:106f9c00f7bdd6b596b575ad55ad34a514a5f39c16
:106fac00d294b2949294518c308430841084ef7bc0
:106fbc00cf7b8e738e736d6bae73494a82106108f2
:106fcc0082108210a318c318c318e42004212421b2
:106fdc002421e318a210aa52ef7b294acb5a108421
:106fec004d6bb2949def75ad294ac739494a2c6354
:106ffc0010844d6b6631e3180842cb5aeb5acb5ace
:10700c00aa52aa52aa528a52694a694a494a294a38
:10701c00a631e420c3182421c739694acb5a0c6322
:10702c00eb5aaa52c7392421ab5a8e73a63162107f
:10703c00e31824210421e420e318c318c318a3186f
:10704c00a3186108a210c739e841e739e841e841c3
:10705c00e841e84108420842084208420842084216
:10706c0008420842084208420842084208422842a4
:10707c002842284228422842294a494a494a494a30
:10708c00494a494a494a694a694a694a694a694abc
:10709c008a52694a8a528a528a528a528a52aa520d
:1070ac00aa52aa52aa52aa52aa52aa52cb5acb5aa2
:1070bc00cb5acb5aeb5aeb5aeb5aeb5aec620c63a9
:1070cc000c630c630c632c632c632c632d6b2d6b8a
:1070dc002d6b4d6b4d6b4d6b4d6b4d6b6d6b6d6bc4
:1070ec006d6b6d6b6d6b8e738e73ae73ae73ae73a7
:1070fc00ae73ae73ae73cf7bcf7bcf7bcf7bcf7baf
:10710c00cf7bef7bef7bef7bef7bef7bef7bef7b43
:10711c001084108410841084108430843084308463
:10712c003084518c518c518c718c718c718c9294eb
:10713c00929492949294b294b294d294d39cf39ce1
:10714c00f39cf39cf39c14a514a514a514a534a5c9
:10715c0034a534a555ad55ad55ad75ad75ad75ad05
:10716c0096b596b596b5b6b5b6b5b6b5d6b5d7bdd2
:10717c00d7bdf7bdf7bdf7bd17be18c618c638c6c4
:10718c0038c638c658c659ce59ce59ce79ce79ced6
:10719c0079ce99ce9ad69ad69ad6bad6bad6bad635
:1071ac00bad6bad6bad6dbdedbdedbdedbdedbde86
:1071bc00dbdedbdefbdefbdefbdefbdefbdefbde3b
:1071cc00fbdefbdefbdefbdefbdefbdefbde1bdfca
:1071dc00fbde1bdf1bdf1bdf1bdf1bdf1ce71ce7e2
:1071ec001ce71ce71ce71ce71ce71ce73ce73ce73b
:1071fc003ce73ce73ce73ce73ce73ce73ce73ce76b
:10720c003ce73ce73ce73ce73ce75ce75ce75ce7fa
:10721c005def5def5def5def5ce75def5ce75ce71d
:10722c005def5def5def5def5def5def5def5deff2
:10723c005def5def5def5def7def7def7def7def62
:10724c007def7def7def9def9def9def9def9def32
:10725c009def9def9def9def9def9ef79ef7bef787
:10726c00bef7bef7bef7bef7bef7bef7bef7bef76a
:10727c00bef7bef7bef7bef7bef7bef7bef7bef75a
:10728c00bef7bef7bef7bef7bef7bef7bef7bef74a
:10729c00bef7bef7bef7bef7bef7bef7bef7bef73a
:1072ac00bef7bef7bef7bef7bef7bef7bef7bef72a
:1072bc00bef7bef7bef7bef7bef7bef7bef7bef71a
:1072cc00bef7bef7bef7bef7bef7bef7bef7bef70a
:1072dc00bef7bef7bef7bef7bef7bef7bef7bef7fa
:1072ec00bef7bef7bef7bef7bef7bef7bef7bef7ea
:1072fc00bef7bef7bef7bef7bef7bef7bef7bef7da
:10730c00bef7bef7bef7bef7bef7bef7bef7bef7c9
:10731c00bef7bef7bef7bef7bef7bef7bef7bef7b9
:10732c00bef7bef7bef7bef7bef79def9def7def44
:10733c007def7def5def5ce73ce71ce71bdffbdee1
:10734c00fbdedbdebad679ce79ce58c618c6f7bdd1
:10735c00d6b5b6b596b555ad54a534a5f39cd39c0e
:10736c00b2949294718c518c30841084ef7bcf7bcf
:10737c00ae738e736d6b8e730c63e42041088210b8
:10738c008210a210c318c318e31804212421252944
:10739c00e4208210cb5acf7ba6316d6bcf7bc739e3
:1073ac00863110841bdfd39c2842a739a631663165
:1073bc00c7398e731084c739a318c739cb5a2c63bd
:1073cc002d6b4d6b2d6b0c63eb5aab5a8a522842ca
:1073dc006529a318a7392d6bef7bb29438c659ce0b
:1073ec00518cae7310846d6b0842694aae73e841e0
:1073fc006210e318242104210421e318c318c318d4
:10740c00c318a2108210e318c739c739c739c73956
:10741c00c739c739e739e739e739e739e739e739a0
:10742c00e739e739e739e739e841e841e84108420b
:10743c0008420842084208420842084228422842b0
:10744c00284228422842294a494a494a494a494a33
:10745c00494a494a494a494a694a694a694a694a08
:10746c00694a694a694a694a694a8a52aa52aa52bd
:10747c00aa52aa52aa52aa52aa52aa52ab5acb5aee
:10748c00cb5acb5acb5acb5acb5acb5acb5aeb5aa8
:10749c000c630c630c630c630c632c632c632c6308
:1074ac002c632c632d6b4d6b4d6b6d6b6d6b6d6b22
:1074bc006d6b6d6b6d6b6d6b6d6b6d6b8e738e73ae
:1074cc008e738e738e73ae73ae73ae73ae73ae7308
:1074dc00cf7bcf7bcf7bcf7bcf7bef7bef7bef7bf0
:1074ec00ef7bef7bef7bef7b108410841084108498
:1074fc001084108410841084108430843084308480
:10750c00518c518c718c718c929492949294929423
:10751c009294b294b294b294d294d39cd39cf39c94
:10752c00f39c139d14a514a534a534a534a534a53a
:10753c0055ad55ad55ad75ad75ad75ad96b596b53d
:10754c00b6b5b6b5b6b5d6b5d6b5d7bdd7bdf7bdfc
:10755c00f7bdf7bd18c618c638c638c638c658c6e3
:10756c0058c659ce59ce79ce79ce79ce79ce79ce40
:10757c0099ce9ad69ad69ad6bad6bad6dad6dad6c8
:10758c00dbdedbdedbdedbdedbdefbdefbdefbdec7
:10759c00fbdefbdefbdefbdefbdefbdefbdefbde17
:1075ac00fbdefbdefbdefbde1bdf1bdf1bdf1bdf83
:1075bc001bdf1bdf1bdf1bdf1ce71ce71ce71ce7cb
:1075cc001ce73ce73ce73ce73ce73ce73ce73ce7b7
:1075dc003ce73ce73ce73ce73ce73ce73ce73ce787
:1075ec005ce75ce75ce75def5ce75ce75ce75def65
:1075fc005def5def5def5def5def5def5def5def1f
:10760c005def7def7def7def7def7def9def9defee
:10761c009def9def9def9def9def9def9def9deffe
:10762c009ef79ef79ef79ef7bef7bef7bef7bef726
:10763c00bef7bef7bef7bef7bef7bef7bef7bef796
:10764c00bef7bef7bef7bef7bef7bef7bef7bef786
:10765c00bef7bef7bef7bef7bef7bef7bef7bef776
:10766c00bef7bef7bef7bef7bef7bef7bef7bef766
:10767c00bef7bef7bef7bef7bef7bef7bef7bef756
:10768c00bef7bef7bef7bef7bef7bef7bef7bef746
:10769c00bef7bef7bef7bef7bef7bef7bef7bef736
:1076ac00bef7bef7bef7bef7bef7bef7bef7bef726
:1076bc00bef7bef7bef7bef7bef7bef7bef7bef716
:1076cc00bef7bef7bef7bef7bef7bef7bef7bef706
:1076dc00bef7bef7bef7bef7bef7bef7bef7bef7f6
:1076ec00bef7bef7bef7bef7bef79def9def9def61
:1076fc007def5def5def3ce73ce71ce7fbdefbde7f
:10770c00dbdebad699ce79ce59ce38c617bef7bdc8
:10771c00d6b5b6b575ad55ad34a514a5f39cd294bc
:10772c009294718c518c30841084ef7bef7bae7310
:10773c008e738e738e738e73c739410862108210ec
:10774c00a210c318c318e420e4200421242104212e
:10775c0062108a52108445294d6b1084a7398631ea
:10776c00a6318e73bad6518cc739a631a631a7393a
:10777c00863165298e73ef7b6529c3184529c73976
:10778c000842694aaa528a528a52494aa6310421ad
:10779c00a21028421084cf7b8a526d6bdad617beaa
:1077ac008a52a63128422c631084ec628a52ae7342
:1077bc00e8416108e420242104210421e318e318a2
:1077cc00c318a318a31882102421c739a631a739ce
:1077dc00c739c739c739c739c739c739c739c7399d
:1077ec00c739c739c739c739c739c739c739c7398d
:1077fc00e739e739e739e739e739084208420842ff
:10780c0008420842084208420842284228422842bc
:10781c002842294a294a294a294a494a494a494a6d
:10782c00494a494a494a494a494a694a694a694a54
:10783c00694a8a528a528a528a528a528a528a5285
:10784c008a52aa52aa52aa52aa52aa52aa52aa526c
:10785c00cb5acb5acb5aeb5aeb5aeb5aeb5aeb5a54
:10786c00ec62ec620c630c630c630c630c632c63b6
:10787c002c632c632c632c632d6b4d6b4d6b4d6b00
:10788c004d6b4d6b4d6b6d6b6d6b6d6b6d6b6d6b8c
:10789c006d6b8e738e738e738e738e738e738e73fd
:1078ac008e73ae73ae73ae73ae73ae73ae73cf7bbb
:1078bc00cf7bcf7bcf7bcf7bcf7bcf7bef7bef7b2c
:1078cc00ef7bef7bef7bef7b108410843084308474
:1078dc00308430843084308430843084518c518caa
:1078ec00518c718c718c718c929492949294929420
:1078fc00b294b294b294d294d39cf39cf39c139d07
:10790c0014a514a534a534a534a554a554a555ad7a
:10791c0055ad75ad75ad96b596b596b596b5b6b57e
:10792c00b6b5d7bdd7bdd7bdf7bdf7bd17be18c609
:10793c0018c638c638c638c638c659ce59ce59cef0
:10794c0079ce79ce79ce79ce99ce9ad69ad6bad638
:10795c00bad6bad6bad6bad6bad6dad6dbdedbde29
:10796c00dbdedbdedbdedbdefbdefbdefbdefbdec3
:10797c00fbdefbdefbdefbdefbde1bdf1bdf1bdfd0
:10798c001bdf1bdf1bdf1bdf1bdf1ce71ce71ce700
:10799c003ce71ce71ce71ce73ce71ce73ce73ce743
:1079ac003ce73ce73ce73ce73ce73ce73ce75ce793
:1079bc005ce73ce73ce73ce75ce75ce75ce75deffa
:1079cc005def5def5def5def7def7def7def7defcb
:1079dc007def7def7def7def7def7def7def7def3b
:1079ec007def9def9def9ef79ef79ef79ef79ef71e
:1079fc00bef7bef7bef7bef7bef7bef7bef7bef7d3
:107a0c00bef7bef7bef7bef7bef7bef7bef7bef7c2
:107a1c00bef7bef7bef7bef7bef7bef7bef7bef7b2
:107a2c00bef7bef7bef7bef7bef7bef7bef7bef7a2
:107a3c00bef7bef7bef7bef7bef7bef7bef7bef792
:107a4c00bef7bef7bef7bef7bef7bef7bef7bef782
:107a5c00bef7bef7bef7bef7bef7bef7bef7bef772
:107a6c00bef7bef7bef7bef7bef7bef7bef7bef762
:107a7c00bef7bef7bef7bef7bef7bef7bef7bef752
:107a8c00bef7bef7bef7bef7bef7bef7bef7bef742
:107a9c00bef7bef7bef7bef7bef7bef7bef7bef732
:107aac00bef7bef7bef7bef79def9def9def9defc6
:107abc007def5def5ce73ce73ce71ce7fbdefbdec4
:107acc00dbdebad679ce79ce58c638c617bef7bd2e
:107adc00b6b596b555ad55ad34a5f39cd294b294cc
:107aec009294718c518c30841084cf7bcf7b8e73ad
:107afc006d6b6d6bae73aa52a2104108a210a2104e
:107b0c00c318c318e420e42004212421242162108a
:107b1c00e739518c8631c739718c2842e739c7391e
:107b2c006529aa5234a56d6be8410842c7398631e4
:107b3c00863166316529cf7b0c630421e318e31889
:107b4c00e318e4200421042104210421e318c318c0
:107b5c00e841718cec62652965294d6b79ceb29444
:107b6c000842c739a7396631e841ae734d6b8a526a
:107b7c00ae73a6316210042124210421e420e31801
:107b8c00e318c318c318821082108631a631a631af
:107b9c00a631a631a631a631a631a631a631a63121
:107bac00a631a631a631a739a739a739c739c739a4
:107bbc00c739c739c739c739c739e739c739e73979
:107bcc00e739e739e739e739e739e841e841e8418e
:107bdc00e84108420842084208422842284228420a
:107bec0028422842284228422842494a494a494abe
:107bfc00494a494a494a494a494a494a494a694ac1
:107c0c00694a694a694a694a694a694a8a528a527e
:107c1c008a528a528a52aa528a52aa52aa52aa52f8
:107c2c00aa52aa52ab5acb5acb5acb5acb5acb5a92
:107c3c00cb5aeb5aeb5aeb5aeb5aec620c63ec62f4
:107c4c00ec620c630c630c630c630c632c632c6391
:107c5c002c632d6b2d6b4d6b4d6b4d6b4d6b4d6bc1
:107c6c004d6b4d6b4d6b4d6b6d6b6d6b6d6b6d6bc8
:107c7c006d6b6d6b6d6b8e738e738e738e73ae734b
:107c8c00ae73ae73ae73ae73ae73ae73cf7bcf7b8e
:107c9c00cf7bcf7bcf7bcf7bcf7bef7bef7bef7b28
:107cac00ef7bef7bef7b1084108410841084308486
:107cbc00308430843084518c518c518c518c518c4b
:107ccc00718c718c929492949294b294b294b2946a
:107cdc00d294d39cd39cd39cf39c139d139d14a53d
:107cec0014a534a534a534a555ad55ad75ad75adfc
:107cfc0075ad96b596b5b6b5b6b5b6b5d7bdd7bd57
:107d0c00d7bdd7bdf7bdf7bdf7bd18c618c638c669
:107d1c0038c638c658c659ce59ce79ce79ce79ce1a
:107d2c0079ce79ce99ce99ce9ad69ad69ad6bad60b
:107d3c00bad6bad6bad6bad6dad6dbdedbdedbde1c
:107d4c00fbdefbdefbdefbdefbdefbdefbdefbde5f
:107d5c00fbde1bdf1bdf1bdf1bdf1bdf1bdf1bdf68
:107d6c001ce71ce71ce73ce73ce73ce73ce73ce74f
:107d7c003ce73ce73ce73ce73ce73ce73ce73ce7df
:107d8c005ce75ce75ce75ce75ce75ce75ce75ce7cf
:107d9c005ce75def5def7def5def7def7def7def00
:107dac007def7def7def7def7def7def9def9def27
:107dbc009def9def9ef79ef79ef79ef79ef79ef721
:107dcc00bef7bef7bef7bef7bef7bef7bef7bef7ff
:107ddc00bef7bef7bef7bef7bef7bef7bef7bef7ef
:107dec00bef7bef7bef7bef7bef7bef7bef7bef7df
:107dfc00bef7bef7bef7bef7bef7bef7bef7bef7cf
:107e0c00bef7bef7bef7bef7bef7bef7bef7bef7be
:107e1c00bef7bef7bef7bef7bef7bef7bef7bef7ae
:107e2c00bef7bef7bef7bef7bef7bef7bef7bef79e
:107e3c00bef7bef7bef7bef7bef7bef7bef7bef78e
:107e4c00bef7bef7bef7bef7bef7bef7bef7bef77e
:107e5c00bef7bef7bef7bef7bef7bef7bef7bef76e
:107e6c00bef7bef7bef7bef79ef79def7def7def39
:107e7c007def5ce75ce73ce71bdf1bdffbdefbde3b
:107e8c00dbdebad679ce79ce38c618c6f7bdd7bdeb
:107e9c00b6b575ad55ad34a514a5f39cb2949294ba
:107eac00718c518c30841084ef7bcf7b8e738e73ee
:107ebc006d6b8e734d6b652941088210a210a3184f
:107ecc00c318e4200421042104212421a21024211c
:107edc00518c2842a3188e73ab5a2529e739c73920
:107eec008631e8418a52494a28422842e73986318c
:107efc00652965292421494a3084c739e420242185
:107f0c00242104210421042104210421e4204529f5
:107f1c00518c2d6b6631863186314d6bf7bd8e736e
:107f2c0086318631a739c73965298631ae73eb5a4c
:107f3c008a52ae7325298210042104210421e318ee
:107f4c00e420c318c318a3188210e420a631a6316c
:107f5c00a631a631a631a631a631a631a631a6315d
:107f6c00a631a631a631a631a631a631a631a6314d
:107f7c00a631a631a631a631a631a631a631a6313d
:107f8c00a631a739c739c739c739c739c739c7392e
:107f9c00e739e739e739e739e8410842084208424e
:107fac000842084208420842084228422842284215
:107fbc002842284228422842284228422842284265
:107fcc00294a294a494a494a494a494a494a494a4d
:107fdc00494a494a694a694a694a694a694a694a3d
:107fec00694a694a694a8a528a528a528a528a5220
:107ffc008a52aa52aa52aa52aa52aa52ab5aab5aa3
:10800c00ab5acb5acb5acb5acb5acb5acb5aeb5a3c
:10801c00eb5aeb5aeb5aec620c630c630c630c637b
:10802c000c632c630c632c632c632c632c632c630c
:10803c002c632c632d6b4d6b4d6b4d6b4d6b4d6be6
:10804c004d6b4d6b6d6b6d6b4d6b4d6b6d6b6d6be4
:10805c006d6b6d6b8e738e738e738e738e738e735e
:10806c00ae73ae73ae73ae73ae73ae73cf7bcf7baa
:10807c00cf7bcf7bef7bcf7bcf7bef7bef7bef7b24
:10808c00ef7b10841084108410843084308430840e
:10809c0030843084518c518c518c718c718c718cde
:1080ac00929492949294b294b294b294d294d39cab
:1080bc00d39cf39c139d14a514a534a534a534a509
:1080cc0034a534a555ad55ad55ad75ad75ad96b55d
:1080dc0096b596b5b6b5b6b5d6b5b6b5d6b5d7bd13
:1080ec00d7bdf7bdf7bdf7bd18c618c638c638c61c
:1080fc0038c638c638c658c659ce59ce79ce79ce80
:10810c0079ce79ce79ce9ad69ad69ad69ad69ad65e
:10811c009ad69ad6bad6bad6bad6bad6dad6dbdeca
:10812c00dbdedbdedbdedbdefbdefbde1bdf1ce7b0
:10813c003ce73ce73ce73ce73ce75ce75ce75defb2
:10814c007def7def7def7def7def9def9def9def63
:10815c009def7def7def7def5ce75ce75ce75def2e
:10816c005def5def5def5def5def7def7def7def43
:10817c007def7def7def7def9def9def9def9def13
:10818c009def9def9ef79ef7bef7bef7bef7bef7cd
:10819c00bef7bef7bef7bef7bef7bef7bef7bef72b
:1081ac00bef7bef7bef7bef7bef7bef7bef7bef71b
:1081bc00bef7bef7bef7bef7bef7bef7bef7bef70b
:1081cc00bef7bef7bef7bef7bef7bef7bef7bef7fb
:1081dc00bef7bef7bef7bef7bef7bef7bef7bef7eb
:1081ec00bef7bef7bef7bef7bef7bef7bef7bef7db
:1081fc00bef7bef7bef7bef7bef7bef7bef7bef7cb
